S01500002E2F44656275672F7465747269732E733139D1
S315200000000248854600F05FF8FEE7C04600C00120A2
S3152000001080B582B000AF0E4B00221A6053237B605E
S315200000200C4B7A681A600C4B00221A60084B05228A
S315200000301A60074B1A6880235B021340F9D0044BE1
S3152000004000221A60C046C046BD4602B080BDC046EA
S3152000005010E000E014E000E018E000E080B584B095
S3152000006000AF78600023FB6006E0FFF7D1FFFFF7C3
S31520000070CFFFFB680133FB60FA687B689A42F4D3B2
S31520000080C046BD4604B080BD80B584B000AF786060
S315200000900023FB6005E00120FFF7E0FFFB6801334A
S315200000A0FB60FA687B689A42F5D3C046BD4604B029
S315200000B080BDC04680B500AF00F0EAFA00F09AF99C
S315200000C0C046BD4680BD80B582B000AFFFF7F2FFC7
S315200000D000237B607B68DBB201220521180000F03B
S315200000E0BDF900F035FA7B6801337B60F2E700004A
S315200000F080B582B000AF0200FB1D1A70064B1B783C
S31520000100DAB20549FB1D1B781343DBB20B70C046E0
S31520000110BD4602B080BDC0461410024080B582B0F4
S3152000012000AF0200FB1D1A70084B1B78DBB25BB2D6
S31520000130FA1D127852B2D24352B213405AB2034B2E
S31520000140D2B21A70C046BD4602B080BD141002401D
S3152000015080B582B000AF0200FB1D1A70FB1D1B7814
S31520000160002B03D11820FFF7D9FF24E0FB1D1B78B5
S315200001700822134008D0FB1D1B781022134003D001
S315200001801820FFF7B5FF16E0FB1D1B780822134049
S3152000019006D00820FFF7ACFF1020FFF7BFFF0AE0CC
S315200001A0FB1D1B781022134005D01020FFF7A0FF5F
S315200001B00820FFF7B3FFC046BD4602B080BD80B51C
S315200001C082B000AF4020FFF7A9FF154B154A1A60F1
S315200001D00220FFF78DFF0120FFF7A0FFFFF718FF92
S315200001E04020FFF785FFFFF713FF0F4AFB1D12780C
S315200001F01A704020FFF792FFFFF70AFFFB1D1B78BE
S315200002005BB2002B00DAEBE7C0464020FFF770FF19
S31520000210034B064A1A60C046BD4602B080BDC046A2
S3152000022000100240555500001110024055555555F5
S3152000023080B584B000AF0200FB1D1A704020FFF786
S315200002406DFF1C4B1C4A1A600320FFF751FFFB1D54
S315200002501B781800FFF77CFFFFF7DAFE4020FFF738
S3152000026047FFFFF7D5FE154A0F23FB1812781A70A1
S315200002704020FFF753FF0F4B114A1A60FB1D1B78D6
S315200002800822134004D00820FFF762FFFFF797FFEC
S31520000290FB1D1B781022134004D01020FFF758FFB7
S315200002A0FFF78DFF0F23FB181B781800BD4604B0FF
S315200002B080BDC04600100240555500001110024076
S315200002C05555555580B582B000AF0200FB1D1A70FA
S315200002D0BB1D0A1C1A701A4AFB1D1B781370BB1D06
S315200002E01B781800FFF734FFFFF792FE4020FFF738
S315200002F0FFFEFFF78DFE4020FFF710FFBB1D1B788A
S315200003000822134004D00820FFF722FFFFF757FFEB
S31520000310BB1D1B781022134004D01020FFF718FFB6
S31520000320FFF74DFF064B00221A704020FFF7E0FE34
S315200003300020FFF70DFFC046BD4602B080BDC04677
S315200003401510024080B582B000AF0200FB1D1A7066
S31520000350BB1D0A1C1A704020FFF7E0FEBB1D1B7850
S315200003601800FFF7F5FE0320FFF7D8FEBB1D1A780D
S31520000370FB1D1B7811001800FFF7A4FFC046BD46E1
S3152000038002B080BD80B582B000AF0200FB1D1A709E
S31520000390BB1D0A1C1A704020FFF7C0FEBB1D1B7830
S315200003A01800FFF7D5FE0120FFF7A2FE0220FFF777
S315200003B0B5FEBB1D1A78FB1D1B7811001800FFF730
S315200003C081FFC046BD4602B080BD80B582B000AF79
S315200003D00200FB1D1A70FB1D1B781800FFF728FF73
S315200003E0FB1D1B781800FFF723FF03001800BD46EE
S315200003F002B080BD80B500AF4020FFF779FE0A200D
S31520000400FFF72CFE7820FFF789FE1E20FFF73CFE23
S315200004102020FFF76DFE18213E20FFF793FF1821BD
S315200004203F20FFF78FFF1821C020FFF78BFF1821F1
S315200004304020FFF787FF1821B820FFF783FF002011
S31520000440FFF786FEC046BD4680BD80B500AF00F0F2
S315200004507FF800F07DF8C046BD4680BD90B583B0DC
S3152000046000AF040008001100FB1D221C1A70BB1DE2
S31520000470021C1A707B1D0A1C1A70FB1D1B785BB2AE
S31520000480002B5DDBBB1D1B783F2B59D87B1D1B78B2
S31520000490002B29D02C4B1B781C00BB1D1B78DB089E
S315200004A0D8B20300DA01FB1D1B78D3182749A20214
S315200004B08A18D35C5AB2BB1D1B7807210B40012139
S315200004C099400B005BB2134359B21F4B1B781C009B
S315200004D00300DA01FB1D1B78D318C8B21B49A20200
S315200004E08A18011CD1542CE0174B1B781C00BB1D0D
S315200004F01B78DB08D8B20300DA01FB1D1B78D31862
S315200005001249A2028A18D35C5BB2BA1D127807215F
S315200005100A40012191400A0052B2D24352B21340FE
S3152000052059B2094B1B781C000300DA01FB1D1B780E
S31520000530D318C8B20549A2028A18011CD15400E07A
S31520000540C046BD4603B090BDCC070020D007002092
S3152000055090B585B000AF0F23FB1808221A70002330
S31520000560BB6056E0BB68402B03D10F23FB1810223B
S315200005701A7000237B6046E0434B1B785A42534156
S31520000580DBB218007B68DA01BB68D3183F498202C8
S315200005908A18D25C3C4B1B781C007B68D901BB684F
S315200005A0CB183A48A1024118CB5C9A4228D0BB68A6
S315200005B0DBB240221343DAB20F243B191B78190011
S315200005C01000FFF7BFFE7B68DBB24822524213437E
S315200005D0DAB23B191B7819001000FFF7B3FE2A4B3D
S315200005E01B7818007B68DA01BB68D318274982027A
S315200005F08A18D25C3B191B7819001000FFF7C2FE3F
S315200006007B6801337B607B68072BB5D9BB680133D8
S31520000610BB60BB687F2BA5D91B4B1B78002B03D057
S31520000620194B00221A7002E0174B01221A70FB1C8C
S3152000063000221A701FE0BB1C00221A7012E0124B17
S315200006401B781800BB1C1B78DA01FB1C1B78D318FF
S315200006500E4982028A180021D154BB1CBA1C12787A
S3152000066001321A70BB1C1B78072BE8D9FB1CFA1C1D
S31520000670127801321A70FB1C1B785BB2002BDADA77
S31520000680C046BD4605B090BDCC070020D00700204F
S3152000069080B500AF114B124A1A60124B1B889BB2D1
S315200006A0104AFF210B409BB213800E4B1B889BB236
S315200006B00C49F022120113439BB20B800A4B1A6895
S315200006C0094B1204120C1A60074B1A68064BAA2112
S315200006D009040A431A60C046BD4680BD000C02408C
S315200006E055550055040C02400C0C024080B582B0D2
S315200006F000AF0200FB1D1A70FB1D1B78043301227C
S315200007009A40034BD2B21A70C046BD4602B080BD95
S31520000710150C024080B582B000AF144B1B78DAB2BC
S31520000720FB1D0F210A401A70FB1D1B780122134066
S3152000073001D0012315E0FB1D1B780222134001D0B6
S3152000074002230EE0FB1D1B780422134001D0032355
S3152000075007E0FB1D1B780822134001D0042300E08C
S3152000076000231800BD4602B080BDC046110C0240D1
S3152000077090B583B000AF00237B601DE07B68DBB2C1
S315200007801800FFF7B3FFFC1CFFF7C4FF030023701C
S31520000790FB1C1B78002B0CD07B689A00FB1C1B785B
S315200007A0D3185A1EBB1C08498A5C1A70BB1C1B78BE
S315200007B006E07B6801337B607B68032BDED9FF2351
S315200007C01800BD4603B090BDD00F002000000000E9
S315200007D000000000000000000000000000000000F3
S315200007E000000000000000000000000000000000E3
S315200007F000000000000000000000000000000000D3
S3152000080000000000000000000000000000000000C2
S31520000FD00102030A0405060B0708090C0E000F0D73
S70520000000DA
